{
	"data": {
		"bytecode": {
			"linkReferences": {},
			"object": "60806040525f5f553480156011575f5ffd5b506040516104a33803806104a3833981810160405281019060319190606e565b805f81905550506094565b5f5ffd5b5f819050919050565b6050816040565b81146059575f5ffd5b50565b5f815190506068816049565b92915050565b5f60208284031215608057607f603c565b5b5f608b84828501605c565b91505092915050565b610402806100a15f395ff3fe608060405234801561000f575f5ffd5b5060043610610055575f3560e01c80631003e2d2146100595780631dc05f171461007557806320965255146100915780633e823f79146100af578063c6888fa1146100cb575b5f5ffd5b610073600480360381019061006e91906101d0565b6100e7565b005b61008f600480360381019061008a91906101d0565b610101565b005b61009961011b565b6040516100a6919061020a565b60405180910390f35b6100c960048036038101906100c491906101d0565b610123565b005b6100e560048036038101906100e091906101d0565b61017f565b005b805f5f8282546100f79190610250565b9250508190555050565b805f5f8282546101119190610283565b9250508190555050565b5f5f54905090565b5f8103610165576040517f08c379a000000000000000000000000000000000000000000000000000000000815260040161015c90610310565b60405180910390fd5b805f5f828254610175919061035b565b9250508190555050565b805f5f82825461018f919061038b565b9250508190555050565b5f5ffd5b5f819050919050565b6101af8161019d565b81146101b9575f5ffd5b50565b5f813590506101ca816101a6565b92915050565b5f602082840312156101e5576101e4610199565b5b5f6101f2848285016101bc565b91505092915050565b6102048161019d565b82525050565b5f60208201905061021d5f8301846101fb565b92915050565b7f4e487b71000000000000000000000000000000000000000000000000000000005f52601160045260245ffd5b5f61025a8261019d565b91506102658361019d565b925082820190508082111561027d5761027c610223565b5b92915050565b5f61028d8261019d565b91506102988361019d565b92508282039050818111156102b0576102af610223565b5b92915050565b5f82825260208201905092915050565b7f56616c7565206d757374206e6f742062652030000000000000000000000000005f82015250565b5f6102fa6013836102b6565b9150610305826102c6565b602082019050919050565b5f6020820190508181035f830152610327816102ee565b9050919050565b7f4e487b71000000000000000000000000000000000000000000000000000000005f52601260045260245ffd5b5f6103658261019d565b91506103708361019d565b9250826103805761037f61032e565b5b828204905092915050565b5f6103958261019d565b91506103a08361019d565b92508282026103ae8161019d565b915082820484148315176103c5576103c4610223565b5b509291505056fea26469706673582212208f4ed5cfe74d954a490230bc8d5675bf60c801d5c72c9f5cee48ca5501ac447364736f6c634300081e0033",
			"opcodes": "PUSH1 0x80 PUSH1 0x40 MSTORE PUSH0 PUSH0 SSTORE CALLVALUE DUP1 ISZERO PUSH1 0x11 JUMPI PUSH0 PUSH0 REVERT JUMPDEST POP PUSH1 0x40 MLOAD PUSH2 0x4A3 CODESIZE SUB DUP1 PUSH2 0x4A3 DUP4 CODECOPY DUP2 DUP2 ADD PUSH1 0x40 MSTORE DUP2 ADD SWAP1 PUSH1 0x31 SWAP2 SWAP1 PUSH1 0x6E JUMP JUMPDEST DUP1 PUSH0 DUP2 SWAP1 SSTORE POP POP PUSH1 0x94 JUMP JUMPDEST PUSH0 PUSH0 REVERT JUMPDEST PUSH0 DUP2 SWAP1 POP SWAP2 SWAP1 POP JUMP JUMPDEST PUSH1 0x50 DUP2 PUSH1 0x40 JUMP JUMPDEST DUP2 EQ PUSH1 0x59 JUMPI PUSH0 PUSH0 REVERT JUMPDEST POP JUMP JUMPDEST PUSH0 DUP2 MLOAD SWAP1 POP PUSH1 0x68 DUP2 PUSH1 0x49 JUMP JUMPDEST SWAP3 SWAP2 POP POP JUMP JUMPDEST PUSH0 PUSH1 0x20 DUP3 DUP5 SUB SLT ISZERO PUSH1 0x80 JUMPI PUSH1 0x7F PUSH1 0x3C JUMP JUMPDEST JUMPDEST PUSH0 PUSH1 0x8B DUP5 DUP3 DUP6 ADD PUSH1 0x5C JUMP JUMPDEST SWAP2 POP POP SWAP3 SWAP2 POP POP JUMP JUMPDEST PUSH2 0x402 DUP1 PUSH2 0xA1 PUSH0 CODECOPY PUSH0 RETURN INVALID PUSH1 0x80 PUSH1 0x40 MSTORE CALLVALUE DUP1 ISZERO PUSH2 0xF JUMPI PUSH0 PUSH0 REVERT JUMPDEST POP PUSH1 0x4 CALLDATASIZE LT PUSH2 0x55 JUMPI PUSH0 CALLDATALOAD PUSH1 0xE0 SHR DUP1 PUSH4 0x1003E2D2 EQ PUSH2 0x59 JUMPI DUP1 PUSH4 0x1DC05F17 EQ PUSH2 0x75 JUMPI DUP1 PUSH4 0x20965255 EQ PUSH2 0x91 JUMPI DUP1 PUSH4 0x3E823F79 EQ PUSH2 0xAF JUMPI DUP1 PUSH4 0xC6888FA1 EQ PUSH2 0xCB JUMPI JUMPDEST PUSH0 PUSH0 REVERT JUMPDEST PUSH2 0x73 PUSH1 0x4 DUP1 CALLDATASIZE SUB DUP2 ADD SWAP1 PUSH2 0x6E SWAP2 SWAP1 PUSH2 0x1D0 JUMP JUMPDEST PUSH2 0xE7 JUMP JUMPDEST STOP JUMPDEST PUSH2 0x8F PUSH1 0x4 DUP1 CALLDATASIZE SUB DUP2 ADD SWAP1 PUSH2 0x8A SWAP2 SWAP1 PUSH2 0x1D0 JUMP JUMPDEST PUSH2 0x101 JUMP JUMPDEST STOP JUMPDEST PUSH2 0x99 PUSH2 0x11B JUMP JUMPDEST PUSH1 0x40 MLOAD PUSH2 0xA6 SWAP2 SWAP1 PUSH2 0x20A JUMP JUMPDEST PUSH1 0x40 MLOAD DUP1 SWAP2 SUB SWAP1 RETURN JUMPDEST PUSH2 0xC9 PUSH1 0x4 DUP1 CALLDATASIZE SUB DUP2 ADD SWAP1 PUSH2 0xC4 SWAP2 SWAP1 PUSH2 0x1D0 JUMP JUMPDEST PUSH2 0x123 JUMP JUMPDEST STOP JUMPDEST PUSH2 0xE5 PUSH1 0x4 DUP1 CALLDATASIZE SUB DUP2 ADD SWAP1 PUSH2 0xE0 SWAP2 SWAP1 PUSH2 0x1D0 JUMP JUMPDEST PUSH2 0x17F JUMP JUMPDEST STOP JUMPDEST DUP1 PUSH0 PUSH0 DUP3 DUP3 SLOAD PUSH2 0xF7 SWAP2 SWAP1 PUSH2 0x250 JUMP JUMPDEST SWAP3 POP POP DUP2 SWAP1 SSTORE POP POP JUMP JUMPDEST DUP1 PUSH0 PUSH0 DUP3 DUP3 SLOAD PUSH2 0x111 SWAP2 SWAP1 PUSH2 0x283 JUMP JUMPDEST SWAP3 POP POP DUP2 SWAP1 SSTORE POP POP JUMP JUMPDEST PUSH0 PUSH0 SLOAD SWAP1 POP SWAP1 JUMP JUMPDEST PUSH0 DUP2 SUB PUSH2 0x165 JUMPI PUSH1 0x40 MLOAD PUSH32 0x8C379A000000000000000000000000000000000000000000000000000000000 DUP2 MSTORE PUSH1 0x4 ADD PUSH2 0x15C SWAP1 PUSH2 0x310 JUMP JUMPDEST PUSH1 0x40 MLOAD DUP1 SWAP2 SUB SWAP1 REVERT JUMPDEST DUP1 PUSH0 PUSH0 DUP3 DUP3 SLOAD PUSH2 0x175 SWAP2 SWAP1 PUSH2 0x35B JUMP JUMPDEST SWAP3 POP POP DUP2 SWAP1 SSTORE POP POP JUMP JUMPDEST DUP1 PUSH0 PUSH0 DUP3 DUP3 SLOAD PUSH2 0x18F SWAP2 SWAP1 PUSH2 0x38B JUMP JUMPDEST SWAP3 POP POP DUP2 SWAP1 SSTORE POP POP JUMP JUMPDEST PUSH0 PUSH0 REVERT JUMPDEST PUSH0 DUP2 SWAP1 POP SWAP2 SWAP1 POP JUMP JUMPDEST PUSH2 0x1AF DUP2 PUSH2 0x19D JUMP JUMPDEST DUP2 EQ PUSH2 0x1B9 JUMPI PUSH0 PUSH0 REVERT JUMPDEST POP JUMP JUMPDEST PUSH0 DUP2 CALLDATALOAD SWAP1 POP PUSH2 0x1CA DUP2 PUSH2 0x1A6 JUMP JUMPDEST SWAP3 SWAP2 POP POP JUMP JUMPDEST PUSH0 PUSH1 0x20 DUP3 DUP5 SUB SLT ISZERO PUSH2 0x1E5 JUMPI PUSH2 0x1E4 PUSH2 0x199 JUMP JUMPDEST JUMPDEST PUSH0 PUSH2 0x1F2 DUP5 DUP3 DUP6 ADD PUSH2 0x1BC JUMP JUMPDEST SWAP2 POP POP SWAP3 SWAP2 POP POP JUMP JUMPDEST PUSH2 0x204 DUP2 PUSH2 0x19D JUMP JUMPDEST DUP3 MSTORE POP POP JUMP JUMPDEST PUSH0 PUSH1 0x20 DUP3 ADD SWAP1 POP PUSH2 0x21D PUSH0 DUP4 ADD DUP5 PUSH2 0x1FB JUMP JUMPDEST SWAP3 SWAP2 POP POP JUMP JUMPDEST PUSH32 0x4E487B7100000000000000000000000000000000000000000000000000000000 PUSH0 MSTORE PUSH1 0x11 PUSH1 0x4 MSTORE PUSH1 0x24 PUSH0 REVERT JUMPDEST PUSH0 PUSH2 0x25A DUP3 PUSH2 0x19D JUMP JUMPDEST SWAP2 POP PUSH2 0x265 DUP4 PUSH2 0x19D JUMP JUMPDEST SWAP3 POP DUP3 DUP3 ADD SWAP1 POP DUP1 DUP3 GT ISZERO PUSH2 0x27D JUMPI PUSH2 0x27C PUSH2 0x223 JUMP JUMPDEST JUMPDEST SWAP3 SWAP2 POP POP JUMP JUMPDEST PUSH0 PUSH2 0x28D DUP3 PUSH2 0x19D JUMP JUMPDEST SWAP2 POP PUSH2 0x298 DUP4 PUSH2 0x19D JUMP JUMPDEST SWAP3 POP DUP3 DUP3 SUB SWAP1 POP DUP2 DUP2 GT ISZERO PUSH2 0x2B0 JUMPI PUSH2 0x2AF PUSH2 0x223 JUMP JUMPDEST JUMPDEST SWAP3 SWAP2 POP POP JUMP JUMPDEST PUSH0 DUP3 DUP3 MSTORE PUSH1 0x20 DUP3 ADD SWAP1 POP SWAP3 SWAP2 POP POP JUMP JUMPDEST PUSH32 0x56616C7565206D757374206E6F74206265203000000000000000000000000000 PUSH0 DUP3 ADD MSTORE POP JUMP JUMPDEST PUSH0 PUSH2 0x2FA PUSH1 0x13 DUP4 PUSH2 0x2B6 JUMP JUMPDEST SWAP2 POP PUSH2 0x305 DUP3 PUSH2 0x2C6 JUMP JUMPDEST PUSH1 0x20 DUP3 ADD SWAP1 POP SWAP2 SWAP1 POP JUMP JUMPDEST PUSH0 PUSH1 0x20 DUP3 ADD SWAP1 POP DUP2 DUP2 SUB PUSH0 DUP4 ADD MSTORE PUSH2 0x327 DUP2 PUSH2 0x2EE JUMP JUMPDEST SWAP1 POP SWAP2 SWAP1 POP JUMP JUMPDEST PUSH32 0x4E487B7100000000000000000000000000000000000000000000000000000000 PUSH0 MSTORE PUSH1 0x12 PUSH1 0x4 MSTORE PUSH1 0x24 PUSH0 REVERT JUMPDEST PUSH0 PUSH2 0x365 DUP3 PUSH2 0x19D JUMP JUMPDEST SWAP2 POP PUSH2 0x370 DUP4 PUSH2 0x19D JUMP JUMPDEST SWAP3 POP DUP3 PUSH2 0x380 JUMPI PUSH2 0x37F PUSH2 0x32E JUMP JUMPDEST JUMPDEST DUP3 DUP3 DIV SWAP1 POP SWAP3 SWAP2 POP POP JUMP JUMPDEST PUSH0 PUSH2 0x395 DUP3 PUSH2 0x19D JUMP JUMPDEST SWAP2 POP PUSH2 0x3A0 DUP4 PUSH2 0x19D JUMP JUMPDEST SWAP3 POP DUP3 DUP3 MUL PUSH2 0x3AE DUP2 PUSH2 0x19D JUMP JUMPDEST SWAP2 POP DUP3 DUP3 DIV DUP5 EQ DUP4 ISZERO OR PUSH2 0x3C5 JUMPI PUSH2 0x3C4 PUSH2 0x223 JUMP JUMPDEST JUMPDEST POP SWAP3 SWAP2 POP POP JUMP INVALID LOG2 PUSH5 0x6970667358 0x22 SLT KECCAK256 DUP16 0x4E 0xD5 0xCF SWAPN 0x4D SWAP6 BLOBBASEFEE BLOBHASH MUL ADDRESS 0xBC DUP14 JUMP PUSH22 0xBF60C801D5C72C9F5CEE48CA5501AC447364736F6C63 NUMBER STOP ADDMOD 0x1E STOP CALLER "
		},
		"gasEstimates": {
			"creation": {
				"codeDepositCost": "205200",
				"executionCost": "infinite",
				"totalCost": "infinite"
			},
			"external": {
				"add(uint256)": "infinite",
				"divide(uint256)": "infinite",
				"getValue()": "2453",
				"multiply(uint256)": "infinite",
				"subtract(uint256)": "infinite"
			}
		},
		"methodIdentifiers": {
			"add(uint256)": "1003e2d2",
			"divide(uint256)": "3e823f79",
			"getValue()": "20965255",
			"multiply(uint256)": "c6888fa1",
			"subtract(uint256)": "1dc05f17"
		}
	},
	"abi": [
		{
			"inputs": [
				{
					"internalType": "uint256",
					"name": "_num",
					"type": "uint256"
				}
			],
			"stateMutability": "nonpayable",
			"type": "constructor"
		},
		{
			"inputs": [
				{
					"internalType": "uint256",
					"name": "_value",
					"type": "uint256"
				}
			],
			"name": "add",
			"outputs": [],
			"stateMutability": "nonpayable",
			"type": "function"
		},
		{
			"inputs": [
				{
					"internalType": "uint256",
					"name": "_value",
					"type": "uint256"
				}
			],
			"name": "divide",
			"outputs": [],
			"stateMutability": "nonpayable",
			"type": "function"
		},
		{
			"inputs": [],
			"name": "getValue",
			"outputs": [
				{
					"internalType": "uint256",
					"name": "",
					"type": "uint256"
				}
			],
			"stateMutability": "view",
			"type": "function"
		},
		{
			"inputs": [
				{
					"internalType": "uint256",
					"name": "_value",
					"type": "uint256"
				}
			],
			"name": "multiply",
			"outputs": [],
			"stateMutability": "nonpayable",
			"type": "function"
		},
		{
			"inputs": [
				{
					"internalType": "uint256",
					"name": "_value",
					"type": "uint256"
				}
			],
			"name": "subtract",
			"outputs": [],
			"stateMutability": "nonpayable",
			"type": "function"
		}
	]
}